:100000000C94AC010C94CB010C94CB010C94CB015F
:100010000C94CB010C94CB010C94CB010C94CB0130
:100020000C94CB010C94CB010C94CB010C94CB0120
:100030000C94CB010C94CB010C94CB010C94CB0110
:100040000C94CB010C94CB010C94CB010C94CB0100
:100050000C94CB010C949D3C0C94CB010C94473E2A
:100060000C94CB010C94CB010C94CB010C94CB01E0
:100070000C94CB010C94CB010C94CB010C94CB01D0
:100080000C94CB010C94CB010C94CB010C94CB01C0
:100090000C94CB010C94CB01BA21C721D021F121C2
:1000A000202430222324EB22262429243624084A23
:1000B000D73B3BCE016E84BCBFFDC12F3D6C74317C
:1000C0009ABD56833DDA3D00C77F11BED9E4BB4CD3
:1000D0003E916BAAAABE000000803F05A84CCDB29D
:1000E000D44EB93836A9020C50B9918688083CA67E
:1000F000AAAA2ABE000000803F07634236B79BD8F9
:10010000A71A39685618AEBAAB558C1D3CB7CC57F8
:1001100063BD6DEDFD753EF6177231BF00000080C6
:100120003F08000000BE922449123EABAAAA2ABE94
:10013000CDCCCC4C3E00000080BEABAAAAAA3E00AB
:10014000000000BF000000803F00000000000841E8
:1001500078D3BB4387D1133D190E3CC3BD4282AD5A
:100160002B3E68EC8276BED98FE1A93E4C80EFFF32
:10017000BE01C4FF7F3F000000000000000000003F
:100180000000005F00000003000300143E143E1452
:10019000242A7F2A124333086661364955225000CB
:1001A00005030000001C2241000041221C0014082D
:1001B0003E081408083E08080050300000080808EF
:1001C0000808006060000020100804023E51494504
:1001D0003E0004027F0042615149462241494936AE
:1001E0001814127F1027454545393E4949493201C7
:1001F000017109073649494936264949493E0036C1
:100200003600000056360000081422410014141471
:100210001414004122140802015109063E415955A7
:100220005E7E0909097E7F494949363E41414122A6
:100230007F4141413E7F494949417F090909013ECA
:100240004141493A7F0808087F00417F4100304022
:1002500040403F7F081422417F404040407F020CD5
:10026000027F7F0204087F3E4141413E7F09090928
:10027000061E2121215E7F09090976264949493256
:1002800001017F01013F4040403F1F2040201F7F70
:100290002010207F41221C2241070870080761516D
:1002A000494543007F41000002040810200000413E
:1002B0007F0004020102044040404040000102046B
:1002C0000020545454787F444444383844444444CF
:1002D000384444447F385454541804047E050508B7
:1002E0005454543C7F0804047800447D400020406E
:1002F000443D007F1028440000417F40007C04788A
:1003000004787C0804047838444444387C14141479
:1003100008081414147C007C080404485454542025
:1003200004043F44443C4040207C1C2040201C3CB2
:100330004030403C44281028440C5050503C446409
:10034000544C44000836414100007F0000414136D2
:10035000080002010204020011241FBECFEFD0E208
:10036000DEBFCDBF11E0A0E0B1E0E4E7F5E900E0D9
:100370000BBF02C007900D92A63FB107D9F722E04C
:10038000A6EFB1E001C01D92A23AB207E1F70E94C8
:10039000F33F0C94B84A0C940000CF93DF93EB0129
:1003A000DC01FA01E230F10530F0299139912D9309
:1003B0003D933297F7CF9A012E7FDC01A20FB31F36
:1003C000FB01E20FF31F40FF02C020812C93DF915D
:1003D000CF9108950F931F93CF93DF938B01FB0170
:1003E0003996DC011E964D915D916D917C915197EE
:1003F000452B462B472BA9F15296CD91DC91539773
:10040000AE0180E090E03EE20196DA012D91AD016F
:10041000203251F0253009F425EE8930910511F490
:1004200030833196208331968B30910569F78B8527
:10043000D80118968C9318974C8D5D8D6E8D7F8D9D
:100440004D935D936D937C931397888D998D15963D
:100450009C938E9314978E899F8917969C938E9365
:1004600016971082DF91CF911F910F910895FC0193
:100470002081318121153105B1F0F901BF01419190
:10048000413270F04A33D1F7F90141916E177F077D
:1004900051F4403341F42E5F3F4FFC013183208300
:1004A00080E090E008958FEF9FEF08950097D1F0DE
:1004B000DC01ED91FC9111973097A1F0208122236E
:1004C00089F02681378112968D919C911397281778
:1004D000390741F481810E94571E80FD06C080E0EB
:1004E00090E0089589E090E0089583E090E0089519
:1004F0008F929F92AF92BF92CF92DF92EF92FF9234
:100500000F931F93CF93DF93FC012481211103C02C
:1005100080E090E043C0EC01C2A4D3A4E4A4F5A41D
:100520005C01FEE2AF0EB11C01E010E0A7019601F4
:10053000B50189810E94521F892B71F51C828E8D15
:100540009F8DA8A1B9A1B701A601481B590B6A0B41
:100550007B0B8E899F89A88DB98D481759076A072B
:100560007B07B0F68B80912CE2E08E16910480F22E
:100570008E899F89A88DB98DC80ED91EEA1EFB1ED3
:1005800001E010E0A7019601B50189810E94521F88
:1005900081E0881A9108E8CF81E090E0DF91CF9167
:1005A0001F910F91FF90EF90DF90CF90BF90AF9091
:1005B0009F908F9008950F931F93CF93DF93EC013B
:1005C0000E947802009709F05FC08881833009F0AB
:1005D0004EC08D81813009F04AC0BE01625D7F4FFF
:1005E000FB01CE01825D9D4FE817F90711F01192D2
:1005F000FBCF85E59AEAFE01E45DFD4F91838083A0
:1006000082E592E5A1E6B1E48EA79FA7A8ABB9ABBE
:1006100082E792E7A1E4B1E67A9780839183A2838F
:10062000B3838E859F85A889B98934968083918309
:10063000A283B3838A859B85AC85BD8534968083F0
:100640009183A283B3838A8D9B8DAC8DBD8D9C01DC
:10065000AD012F5F3F4F4F4F5F4F2AA73BA74CA7DE
:100660005DA701E010E089810E94521F1D8240E0D9
:1006700050E060E089810E94BB1F31E020E0892BBF
:1006800009F430E0832F922FDF91CF911F910F91CA
:1006900008958F929F92AF92BF92EF92FF920F9325
:1006A0001F93CF93DF93EC014A015B018AA59BA5C1
:1006B000ACA5BDA5481759076A077B07F1F0CE0125
:1006C0000E9478027C01892BD1F401E010E0A501A1
:1006D0009401BE01625D7F4F89810E94081F892BB2
:1006E00039F0EE24E394F12C88248A94982C540158
:1006F0008AA69BA6ACA6BDA602C0E12CF12CC70120
:10070000DF91CF911F910F91FF90EF90BF90AF902D
:100710009F908F900895CF93DF93EC011C828FEF11
:100720009FEFDC018AA79BA7ACA7BDA7CE010E94C3
:100730004903892B11F5FE01E45DFD4F8081918114
:1007400085359A4AE1F4E85CF14080819181A2818B
:10075000B381BB2786349144A445B10591F0C058BC
:10076000DF4F488159816A817B81772781E0463458
:1007700051446445710531F404C083E003C082E054
:1007800001C080E0DF91CF9108952F923F924F9268
:100790005F926F927F928F929F92AF92BF92CF9211
:1007A000DF92EF92FF920F931F93CF93DF93CDB71A
:1007B000DEB76D970FB6F894DEBF0FBECDBF5C01FC
:1007C000CB01D42ED5011D921C920E9437027C01D0
:1007D00097FD1FC2FC01EE0FFF1FE850FE4F008186
:1007E00011810115110509F417C2F5011183008368
:1007F000D8018C91882371F011968C910E94571E1C
:1008000080FD08C0DD2009F40AC282FF08C28AE028
:1008100090E00DC2F8011082E1828E2D0E945E1ED2
:1008200080FD00C2DD2011F082FDF1CF40E050E0FC
:10083000BA01C8010E948B038130D1F5F801E05163
:10084000FE4F9E012F5F3F4F6901C801805D9D4FA4
:10085000D9012081222329F0448155816681778145
:1008600003C040E050E0BA014D935D936D937D93DA
:100870007096E817F90769F77E0131E1E30EF11C84
:10088000D6014D905D906D907D906D0141145104A5
:100890006104710441F0B301A201C8010E948B03FD
:1008A000811102C010C082E0CE14DF0449F703C0FA
:1008B000412C512C3201833009F4B7C1882319F03F
:1008C0008DE090E0B4C1F80181AD92AD8115924008
:1008D000B9F7F801EC5BFF4F80809180A12CB12C1F
:1008E00081149104A104B10429F43E968080918082
:1008F000A280B380D80156968D929D92AD92BC9203
:100900005997DE964C91DE9713964C9313978FEF81
:10091000840F8230A8F6DB96EC91DB97E98B129678
:10092000EC931297EE2361F28E2F90E09C01215000
:10093000310982239323892B19F6F801FF96208031
:10094000318019963C922E921897C1018F70992789
:10095000892B09F0B5CF3296C080D180E12CF12CE3
:10096000C114D104E104F10429F43D96C080D18082
:10097000E280F380D801DC96ED91FC91DD97309711
:1009800009F49ECFA42FB0E0A50194010E94474234
:100990006E8B7F8B888F998F9F0140E050E02A8F6C
:1009A0003B8F4C8F5D8FC10164E0969587956A956A
:1009B000E1F7280F391F411D511DDA01C9012E89A8
:1009C0003F89488D598D280F391F4A1F5B1F2A8B7D
:1009D0003B8B4C8B5D8BC216D306E406F50608F400
:1009E0006FCFC701B601621B730B840B950BE989AE
:1009F0002E2F30E040E050E00E94FD4121153105EE
:100A00004105510509F45CCF263FFFE03F07410552
:100A1000510548F0263F8FEF38074105510530F466
:100A200092E0998B05C0A1E0A98B02C0B3E0B98B1D
:100A300069017A01E2E0CE0ED11CE11CF11CD80163
:100A40005296CD92DD92ED92FC925597F801428E2E
:100A5000538E648E758E8A8D9B8DAC8DBD8D840D6D
:100A6000951DA61DB71D868F978FA0A3B1A34A8998
:100A70005B896C897D89440D551D661D771D46A3D4
:100A800057A360A771A7F989F330B9F4232809F0B7
:100A900017CFF801E65AFF4F80819181A281B3817F
:100AA000F80182A393A3A4A3B5A342E0CC0CDD1C60
:100AB000EE1CFF1C4A95D1F72DC0232809F400CF66
:100AC0002E893F89488D598D820F931FA41FB51F12
:100AD000F80182A393A3A4A3B5A3F989F23029F462
:100AE000CC0CDD1CEE1CFF1C15C0A3E0B0E0A70180
:100AF00096010E944742DC01CB01B695A7959795D8
:100B0000879521E0C222DD24EE24FF24C80ED91EE1
:100B1000EA1EFB1E3FEFC30E31E0D31EE11CF11CA9
:100B200089E0F694E794D794C7948A95D1F78C140A
:100B30009D04AE04BF0408F4C3CE8FEF9FEFDC0129
:100B4000F80186879787A08BB18B82879387A487CC
:100B5000B58780E88583F989F33009F049C0F80149
:100B6000E25AFF4F80819181019709F041C0B301A2
:100B7000A2014F5F5F4F6F4F7F4FC8010E94490333
:100B8000892BB1F5D80115961C92F801E45DFD4F53
:100B90008081918185359A4A59F5F80186A597A5F6
:100BA000A0A9B1A982359245A146B14409F5F80141
:100BB000EE5EFD4F80819181A281B38182379247A1
:100BC000A144B146A9F4349680819181A281B38178
:100BD000F80186879787A08BB18BE65EFD4F8081F9
:100BE0009181A281B381F80182879387A487B58719
:100BF000E989D801EC938091F6019091F701019673
:100C00009093F7018093F60117969C938E93169715
:100C100006C08BE090E00BC08CE090E008C080E064
:100C200090E005C083E090E002C081E090E06D9626
:100C30000FB6F894DEBF0FBECDBFDF91CF911F91ED
:100C40000F91FF90EF90DF90CF90BF90AF909F906B
:100C50008F907F906F905F904F903F902F9008956E
:100C60000F931F93FC019A01AB01225031094109F6
:100C7000510982899389A489B5890297A109B1098B
:100C8000281739074A075B0768F4A281B0E00E9481
:100C9000474206A117A120A531A5600F711F821F31
:100CA000931F03C060E070E0CB011F910F91089586
:100CB000AF92BF92CF92DF92EF92FF920F931F936A
:100CC000CF93DF938C016A017B01423051056105AE
:100CD000710508F4AFC0F80182899389A489B589A8
:100CE000481759076A077B0708F0A4C08081823043
:100CF00009F44DC0833009F46FC0813009F09AC007
:100D0000EA01D695C795CC0DDD1DCE01892F992717
:100D10008695468D578D60A171A1480F591F611DA1
:100D2000711DC8010E944903892B21F06FEF7FEFED
:100D3000CB0184C05E01FFEFAF1ABF0AD170C00FB4
:100D4000D11FCEA5C501892F99278695F801468D1B
:100D5000578D60A171A1480F591F611D711DC801F8
:100D60000E944903892B11F7F1E0BF22F801EA0D37
:100D7000FB1D86A56C2F70E0782BC0FE06C054E0EA
:100D8000769567955A95E1F724C07F7022C0772742
:100D90006F2D5E2D4D2DF801868D978DA0A1B1A1EF
:100DA000480F591F6A1F7B1FC8010E944903892BE6
:100DB00009F0BCCFCC0CDD1CEE1CFF1CE894C0F885
:100DC000F1E0DF22EE24FF24F801EC0DFD1D66A505
:100DD00077A580E090E032C0F801868D978DA0A1C4
:100DE000B1A127E076956795579547952A95D1F754
:100DF000480F591F6A1F7B1FC8010E944903892B96
:100E000009F094CF82E0CC0CDD1CEE1CFF1C8A950F
:100E1000D1F7FCEFCF22F1E0DF22EE24FF24F8012E
:100E2000EC0DFD1D86A597A5A0A9B1A9BC01CD011A
:100E30009F7004C061E070E080E090E0DF91CF91AE
:100E40001F910F91FF90EF90DF90CF90BF90AF90E8
:100E50000895AF92BF92CF92DF92EF92FF920F93DD
:100E60001F93CF93DF938C01EB01DC0115967C93EC
:100E70006E9314971696CD90DD90ED90FC90199797
:100E8000B1E0CB16D104E104F10419F482E090E062
:100E90008BC0DC01ED91FC9182899389A489B5898D
:100EA000C816D906EA06FB0688F7C114D104E10486
:100EB000F104B9F48081833041F482A193A1A4A10B
:100EC000B5A10097A105B10551F480859185C8179A
:100ED000D907E0F662A173A184A195A134C06C0189
:100EE0007D01A280B0E1AB9E50011124B701A601A3
:100EF000F80180819181CA15DB0508F10E9458062E
:100F0000AB01BC014F3FEFEF5E076E077E0709F4B0
:100F100049C0423051056105710508F4B7CFD801C9
:100F2000ED91FC9182899389A489B5894817590765
:100F30006A077B0708F0AACFCA19DB09D9CF6A0173
:100F40007B010E943006D8011A96CD92DD92ED9277
:100F5000FC921D97611571058105910509F496CFE5
:100F60009E0144E0369527954A95E1F7DC01CB01D7
:100F7000820F931FA11DB11DF80186879787A08B53
:100F8000B18BCF70DD2755E0CC0FDD1F5A95E1F70F
:100F9000AE9680819181C80FD91FD38BC28B80E020
:100FA00090E002C081E090E0DF91CF911F910F911E
:100FB000FF90EF90DF90CF90BF90AF900895CF93C8
:100FC000DF93EC016C817D810E9429070097E1F499
:100FD0004E855F8568897989888199810E94490356
:100FE000009791F4EA89FB899F01205E3F4FE21749
:100FF000F30711F01192FBCFEA89FB8925EE2083DC
:10100000E881F98121E02483DF91CF9108952F9227
:101010003F924F925F926F927F928F929F92AF9288
:10102000BF92CF92DF92EF92FF920F931F93CF93D5
:10103000DF9300D000D0CDB7DEB71C016A017B0181
:1010400028013901423051056105710508F4E7C0F6
:10105000FC0182899389A489B589481759076A07D1
:101060007B0708F0DCC08081823009F475C08330D2
:1010700009F498C0813009F0D2C05A01B694A794FF
:10108000A40EB51EC501892F99278695468D578DCB
:1010900060A171A1480F591F611D711DC1010E94FE
:1010A0004903009709F0BDC04501FFEF8F1A9F0A61
:1010B00021E0B222A20CB31CA701960121703327B4
:1010C0004427552729833A834B835C83C0FE0BC09A
:1010D000D5019E968C91282F2F70B0E14B9EC001B8
:1010E0001124822B01C0842DF50186A781E0D10156
:1010F00014968C9314975E964D915D916D917C91B1
:101100009197C401892F99278695480F591F611D12
:10111000711DC1010E944903009709F082C0B1E02E
:101120009B22F101E80DF91D29813A814B815C81F7
:10113000232B242B252B41F064E07694679457945D
:1011400047946A95D1F706C036A5307F252D2F70BC
:10115000432E422A46A65EC077276F2D5E2D4D2D69
:10116000F101868D978DA0A1B1A1480F591F6A1F6B
:101170007B1FC1010E944903009709F052C0CC0CAB
:10118000DD1CEE1CFF1CE894C0F8F1E0DF22EE2429
:10119000FF242EE2C20ED11CF101EC0DFD1D518287
:1011A000408238C0F101868D978DA0A1B1A137E0B2
:1011B00076956795579547953A95D1F7480F591FFA
:1011C0006A1F7B1FC1010E944903009751F522E06D
:1011D000CC0CDD1CEE1CFF1C2A95D1F7FCEFCF22B6
:1011E000F1E0DF22EE24FF242EE2C20ED11CF10139
:1011F000EC0DFD1D4081518162817381442755278B
:101200006627707F442A552A662A772A40825182AF
:101210006282738221E0D10114962C9302C082E095
:1012200090E00F900F900F900F90DF91CF911F9152
:101230000F91FF90EF90DF90CF90BF90AF909F9075
:101240008F907F906F905F904F903F902F90089578
:101250004F925F926F927F928F929F92AF92BF92C6
:10126000CF92DF92EF92FF920F931F93CF93DF9372
:10127000EC012A013B01411551056105710599F405
:101280008A849B84AC84BD8481149104A104B1043C
:1012900061F18A899B89AC89BD8988169906AA065D
:1012A000BB0638F122C00E9458066B017C016230F7
:1012B00071058105910508F48DC08FEFC816D80619
:1012C000E806F80629F46FEF7FEF8FEF9FEF89C0F4
:1012D0008A899B89AC89BD89C816D906EA06FB06AE
:1012E00008F47DC05301420104C0812C912C5401AB
:1012F0008394750164012FEFC21AD20AE20AF20A3E
:101300008A899B89AC89BD89C816D906EA06FB067D
:1013100068F082E088169104A104B10410F460E042
:101320005AC082E0C82ED12CE12CF12CB701A601C5
:10133000CE010E9458068B019C01672B682B692BFC
:10134000A1F00F3F8FEF18072807380729F0013069
:1013500011052105310519F4B801C90142C0C814AD
:10136000D904EA04FB0439F6DACF0FEF1FEF2FEFB1
:101370003FE0B701A601CE010E940708009739F5AA
:101380004114510461047104C9F4CA86DB86EC86F9
:10139000FD868E859F85A889B9898F3F2FEF92079B
:1013A000A207B207E1F00197A109B1098E879F87D3
:1013B000A88BB98B8D8181608D8311C097018601C7
:1013C000B301A201CE010E9407080097F1F2019734
:1013D00009F479CF61E070E080E090E002C0B601EE
:1013E000C701DF91CF911F910F91FF90EF90DF9098
:1013F000CF90BF90AF909F908F907F906F905F90B5
:101400004F9008957F928F929F92AF92BF92CF920A
:10141000DF92EF92FF920F931F93CF93DF93EC0134
:101420006B01EC80FD808FEFE81AF80A19F484E074
:1014300090E0E6C04E855F85688979894115510540
:1014400061057105A1F387010F70112701151105C1
:1014500009F0C2C04F5F5F4F6F4F7F4F4E875F876E
:10146000688B798B4A855B856C857D8588819981C0
:10147000FC01411551056105710531F480859185A7
:10148000E816F906A0F6A8C0228130E02150310903
:10149000F701A4E0F695E795AA95E1F72E233F23FF
:1014A000232B09F099C00E9458064B015C01623061
:1014B00071058105910518F482E090E0A1C08FEFDD
:1014C00088169806A806B80619F481E090E098C03E
:1014D00088819981FC0142895389648975898416C0
:1014E0009506A606B70608F469C0CD2809F49FCF73
:1014F0004A855B856C857D850E9428094B015C01CE
:10150000611571058105910509F478C06130710597
:101510008105910589F28FEF88169806A806B8060E
:10152000A1F2888199810E947802892B71F68881C5
:101530009981FC01BE96825D9D4FE817F90711F075
:101540001192FBCFC880D980B501A401C6010E94C9
:101550003006F60162A773A784A795A7C12CD12CEA
:1015600077247394E881F981828190E0C816D906C6
:10157000C8F47482888199810E947802892B09F0CD
:10158000A4CFE881F98182A593A5A4A5B5A501966C
:10159000A11DB11D82A793A7A4A7B5A7FFEFCF1ADE
:1015A000DF0AE0CF82A593A5A4A5B5A58C199D0956
:1015B000A109B10982A793A7A4A7B5A78A869B868C
:1015C000AC86BD86B501A401888199810E94300650
:1015D0006E877F87888B998BFD82EC8285E0000F78
:1015E000111F8A95E1F7025D1F4F88819981080FCD
:1015F000191F1B8B0A8B80E090E002C087E090E00F
:10160000DF91CF911F910F91FF90EF90DF90CF90DE
:10161000BF90AF909F908F907F9008958F929F92F0
:10162000AF92BF92CF92DF92EF92FF920F931F93F0
:10163000CF93DF93EC018B01DB018C918F3211F0A2
:101640008C3511F40F5F1F4F1E821F82188619867A
:10165000F8018081803228F030E2F32E45E0E42E5C
:101660006BC060E070E0CE010E9429071B8A1A8AD5
:101670002FC180E090E040E050E028E030E0A12C75
:101680008A010F5F1F4FB401640F751FDB01BC900F
:10169000B0E2BB1508F467C0080D191DB0E2BB1518
:1016A00008F0B5C040E0892B09F4EDC08081853E8B
:1016B00009F4E0822830310511F4AA0CAA0C8A2D15
:1016C0008370813009F440618A2D8C70843009F474
:1016D0004860438760E070E0CE010E9429070097D0
:1016E00009F497C09C01EC89FD89438521153105DA
:1016F00009F0BCC042FDC1C04A895B89FA018385FB
:1017000084FFBEC0828D938DA0E0B0E02881398136
:10171000F9012081233061F4FA014489558960E0A0
:1017200070E0BA0155274427842B952BA62BB72BA5
:101730008E839F83A887B9874801D8018C910F5F5A
:101740001F4F8F32C9F38C35B9F3EC89FD89CF0176
:101750009F01255F3F4F8217930709F48ACFDC0171
:10176000FD92CD01F8CF6FE2B61609F495CFACE546
:10177000BA1609F491CFBEE2BB1609F487C08217EE
:10178000930708F080C0B7FE03C06A2D6360A62EE1
:101790006FE76B0D6F3120F060E26B0D6D3130F54E
:1017A0004E5F5F4F080D191DD8011C9160EC610F51
:1017B0006F3328F060E8610F6D3708F064C0B9013D
:1017C000615071098617970708F05DC0BF01680F67
:1017D000791FDB01BC92BC016F5F7F4F6E0F7F1FD3
:1017E0000296DB011C938A01A8014ACFCB2CD12C95
:1017F0006DE471E0DB014D91BD01442309F450C05B
:10180000042E000C550B4C155D05A1F73CC044E0BF
:101810004ACF4E855F8568897989888199810E9440
:101820004903009709F05ECFEA89FB89808188230C
:10183000B9F0838583FD0EC0AC89BD89AF01455FDA
:101840005F4FE417F50779F081912D9190E0821BAD
:101850009109B9F360E070E0CE010E94020A3FCF27
:1018600024E030E040CF20E030E03DCFC90124301B
:10187000310571F542FF04C02BC080E090E028C024
:1018800085E090E025C086E090E022C02830310558
:10189000D1F7AA0CAA0C88E090E02BE030E0A4CFAE
:1018A0004FEB4B0D4A3120F4BA2DB260AB2E09C07C
:1018B0004FE94B0D4A3128F44A2D4160A42E60EEC9
:1018C000B60EAF01480F591FDA01BC9201968CCFBA
:1018D000DF91CF911F910F91FF90EF90DF90CF900C
:1018E000BF90AF909F908F900895CF93DF93EC01BE
:1018F00084E090E04E855F856889798941155105BE
:101900006105710509F1888199810E944903009759
:10191000E9F4EA89FB8980818823E9F09385853E93
:1019200059F08E3249F09F739F3031F09F7198309B
:1019300019F080E090E012C060E070E0CE010E94FB
:10194000020A0097B9F202C0009799F31E861F861B
:10195000188A198A03C084E090E0F8CFDF91CF9114
:1019600008950F931F93CF93DF93EC0160E070E035
:101970000E9429078C01892BC1F44E855F856889F7
:101980007989888199810E9449038C01892B69F4A6
:10199000EA89FB898081853E71F0882361F061E0EE
:1019A00070E0CE010E94020AE5CF0430110519F55E
:1019B00007E010E020C04E855F85688979898881BD
:1019C00099810E9449038C01892BA9F4EA89FB893A
:1019D000CF018096E817F90711F01192FBCF6C89BF
:1019E0007D894BE050E08A899B890E94CD01E88186
:1019F000F98181E08483C801DF91CF911F910F911C
:101A000008958F929F92AF92BF92CF92DF92EF9202
:101A1000FF920F931F93CF93DF93EC016A017B0139
:101A2000423051056105710518F482E090E04FC025
:101A30008A899B89AC89BD89481759076A077B0742
:101A4000A0F78A899B89AC89BD89C816D906EA06A0
:101A5000FB0658F4B701A601CE010E9458064B01BF
:101A60005C01672B682B692B19F480E090E02FC094
:101A700081E088169104A104B104B9F22FEF821617
:101A80009206A206B20609F100E010E09801B70143
:101A9000A601CE010E9407080097C9F48E859F8594
:101AA000A889B9898F3F2FEF9207A207B20751F09B
:101AB0000196A11DB11D8E879F87A88BB98B8D8143
:101AC00081608D8375016401BCCF81E090E0DF917E
:101AD000CF911F910F91FF90EF90DF90CF90BF902B
:101AE000AF909F908F900895CF93DF93CDB7DEB7DF
:101AF00027970FB6F894DEBF0FBECDBF9C838B83B4
:101B00007E836D837A836983CE0101964F830E9421
:101B100037024F8197FD24C0880F991FFC01E850C0
:101B2000FE4F0190F081E02D309709F01082EB819B
:101B3000FC81309709F010822B813C81FC01E85038
:101B4000FE4F31832083232B71F0413061F440E05C
:101B5000BE016B5F7F4FCE0103960E94C50305C097
:101B60008BE090E002C080E090E027960FB6F894FA
:101B7000DEBF0FBECDBFDF91CF9108954F925F9230
:101B80006F927F928F929F92AF92BF92DF92EF926D
:101B9000FF920F931F93CF93DF93CDB7DEB7A49738
:101BA0000FB6F894DEBF0FBECDBF7CA36BA300972A
:101BB00009F4F9C0B42E7C01DC011D921C924E7117
:101BC000BE016D5D7F4FCE0101960E94C503009757
:101BD00009F0F4C0CE0147969E8B8D8B6BA17CA142
:101BE00046970E940E0B0B891C89009729F401155A
:101BF000110511F486E090E0BB2DBF71DB2E2B2D7B
:101C00002C7109F471C0009779F08430910521F4AA
:101C1000CE0101960E94B10CED2DE860DE2E0B89FD
:101C20001C89009749F0CAC0D8011B968C9181711C
:101C300009F0C2C0B2FCBAC0D3FE62C080E090E03E
:101C4000A9E6B5E4F80186879787A08BB18B138648
:101C5000D801148E158E168E178EE981FA815A9648
:101C60008D909C905B97A12CB12C8081833069F47E
:101C700054964D915C91559760E070E0BA015527FC
:101C80004427842A952AA62AB72AD8015B961C9253
:101C90001E925A9755961C921E92549781E0848307
:101CA00081149104A104B10459F142A453A464A481
:101CB00075A4B501A401CF010E94010D009709F0A0
:101CC0007DC089819A81B1E08B1A9108A108B10881
:101CD000FC0182869386A486B586B301A2010E9488
:101CE0004903009769F06AC0009709F067C0D801FE
:101CF0001B968C9184FD5DC0B1FE02C080FD5CC06E
:101D0000D3FE03C0BD2DB062DB2EA980BA80F501E1
:101D100042A553A564A575A5D7015A964D935D9329
:101D20006D937C935D975F961C930E935E971496CC
:101D3000DC92149715961C92F801828D938DA0E089
:101D4000B0E0F5012081233061F4F8014489558920
:101D500060E070E0BA0155274427842B952BA62B11
:101D6000B72BF70186879787A08BB18BF801848DFD
:101D7000958DA68DB78DF70182879387A487B58748
:101D80001682178210861186168A178A108E118E77
:101D9000B182A082D50116968D919C91179793835D
:101DA000828380E001C089E090E008C088E090E094
:101DB00005C084E090E002C087E090E0A4960FB6F2
:101DC000F894DEBF0FBECDBFDF91CF911F910F9171
:101DD000FF90EF90DF90BF90AF909F908F907F909B
:101DE0006F905F904F9008952F923F924F925F9225
:101DF0006F927F928F929F92AF92BF92CF92DF921B
:101E0000EF92FF920F931F93CF93DF93EC015B014F
:101E10006A011901F901118210820E94560200978D
:101E200009F011C18D81882311F090E00CC18C81E3
:101E300080FF07C18A859B85AC85BD854E815F810A
:101E400068857985841B950BA60BB70BA60160E00E
:101E500070E084179507A607B70708F077C06C01F4
:101E600075C04E815F8168857985DB01CA019170FB
:101E7000AA27BB27892B8A2B8B2B09F0B7C0888117
:101E80009981FC01228121502A013B01E9E07694ED
:101E9000679457944794EA95D1F7122F142109F4C7
:101EA0005AC0888099804A895B896C897D89C40180
:101EB0000E943006611571058105910509F45FC026
:101EC0002B013C01410E511C611C711C7601EF2C51
:101ED000FF24E694E114F10409F484C0F401828142
:101EE000212F30E0A701420F531F90E08417950780
:101EF00018F47C01E21AF30A8701A3019201B501EB
:101F0000F40181810E94081F892B09F043C0E881F8
:101F1000F9818481811148C0FE2CEE24FF0CAE0CA7
:101F2000BF1C8E819F81A885B9858E0D9F1DA11D27
:101F3000B11D8E839F83A887B987F101808191812C
:101F40008E0D9F1D91838083CE18DF08C114D104AC
:101F500009F087CF73C0452B462B472B29F46E859C
:101F60007F858889998906C04A895B896C897D89C2
:101F70000E945806623071058105910528F482E0BF
:101F80008D8382E090E05FC06F3FFFEF7F078F0798
:101F90009F0729F481E08D8381E090E054C06A8B33
:101FA0007B8B8C8B9D8B7DCF82A593A5A4A5B5A59E
:101FB00084199509A609B709A70160E070E08417A4
:101FC0009507A607B70708F0A7CFBF01625D7F4F4F
:101FD000982F8827990F40E052E08A0D9B1D0E94A0
:101FE000CD019ACF4E8A5F8A688E798E8E819F81CD
:101FF000917020E032E0281B390B76012C153D054D
:1020000008F479014E895F89688D798D888199817D
:102010000E944903892B09F0BDCF8E819F81A8853D
:10202000B9859170AA27BB278E9668817981680F40
:10203000791FA701C5010E94CD0171CF80E090E01A
:1020400002C087E090E0DF91CF911F910F91FF9048
:10205000EF90DF90CF90BF90AF909F908F907F9048
:102060006F905F904F903F902F9008952F923F92E6
:102070004F925F926F927F928F929F92AF92BF9298
:10208000CF92DF92EF92FF920F931F93CF93DF9344
:10209000EC015B016A011901F901118210820E94B1
:1020A0005602009709F06EC18D81882311F090E0EF
:1020B00069C18C8181FF64C18E819F81A885B985AA
:1020C000AC01BD014C0D5D1D611D711D4817590707
:1020D0006A077B0708F0A4C0C12CD12CA1C04E8197
:1020E0005F8168857985DB01CA019170AA27BB27CA
:1020F000892B8A2B8B2B09F011C1E881F981228170
:1021000021502A013B01A9E07694679457944794A3
:10211000AA95D1F7122F142109F487C088819981DB
:10212000FC0142A453A464A475A44E895F89688D00
:10213000798D441655066606770609F4CDC0888069
:1021400099804A895B896C897D89C4010E94300627
:10215000611571058105910509F49CC02B013C01B5
:10216000410E511C611C711C7601EF2CFF24E6947A
:10217000E114F10409F4B6C0F4018281212F30E0AA
:10218000A701420F531F90E08417950718F47C01B4
:10219000E21AF30A8701A3019201B501F4018181DA
:1021A0000E94521F892B09F080C088819981FC010F
:1021B00042A553A564A575A5441955096609770973
:1021C0002701612C712C441555056605770570F4BF
:1021D000542F4427550FB501640F751F40E052E09E
:1021E0008E960E94CD01E881F9811482FE2CEE24A6
:1021F000FF0CAE0CBF1C8E819F81A885B9858E0D0A
:102200009F1DA11DB11D8E839F83A887B987F101F2
:10221000808191818E0D9F1D91838083CE18DF0870
:10222000C114D10409F05BCF1DC0452B462B472BB1
:1022300069F46E857F8588899989611571058105A5
:10224000910519F540E050E0BA0104C04A895B8964
:102250006C897D89CF010E9428096115710581056E
:10226000910599F48E819F81A885B9854A855B8502
:102270006C857D85481759076A077B0708F07AC087
:102280008A879B87AC87BD8775C0613071058105E2
:10229000910529F482E08D8382E090E073C06F3F66
:1022A000FFEF7F078F079F0729F481E08D8381E08F
:1022B00090E068C06A8B7B8B8C8B9D8B4E845F8497
:1022C0006888798845284628472809F027CF6E87EF
:1022D0007F87888B998B22CF0E947802892B09F403
:1022E0002ECFE3CF4E815F81688579858A859B8576
:1022F000AC85BD85481759076A077B0758F0C401AC
:102300000E947802892B89F6E881F98142A653A6BA
:1023100064A675A64E8A5F8A688E798E8E819F81AB
:10232000917020E032E0281B390B76012C153D0519
:1023300008F479014E895F89688D798D888199814A
:102340000E944903892B09F0B0CF8E819F81A88517
:10235000B9859170AA27BB278E9628813981A7015C
:10236000B501820F931F0E94CD01E881F98131E010
:1023700034833FCF8C8180628C8380E090E002C008
:1023800087E090E0DF91CF911F910F91FF90EF9048
:10239000DF90CF90BF90AF909F908F907F906F9085
:1023A0005F904F903F902F900895EF92FF920F9380
:1023B0001F93CF93DF9300D0CDB7DEB7FC0122810E
:1023C000338137FD2EC08C017901FFEFEF1AFF0A30
:1023D000FC01E20FF31F66838DE3E816F104CCF0F5
:1023E0009E012F5F3F4FA701B8016A5F7F4FF80141
:1023F000808191810E94361081E090E029813A81AC
:102400002E153F0511F480E090E0EE24FF24E81A39
:10241000F90AF801F382E28284819581019695831D
:1024200084830F900F90DF91CF911F910F91FF90B8
:10243000EF900895CF93DF93EC010E94560200972E
:10244000C9F52C8125FF36C04A8D5B8D6C8D7D8D45
:10245000888199810E944903009761F5EE8DFF8D77
:102460008385806283878A859B85AC85BD85848FC3
:10247000958FA68FB78F8E859F85A889B989938FF1
:10248000828FB58BA48B80E090E0A9E6B5E4868BC3
:10249000978BA08FB18F138A128A8C818F7D8C834A
:1024A000E881F98181E0848388819981DF91CF91EE
:1024B0000C94DB02DF91CF910895CF93DF93EC0171
:1024C0000E941A12009739F4CE010E94560200971A
:1024D00011F419821882DF91CF9108952F923F92C3
:1024E0004F925F926F927F928F929F92AF92BF9224
:1024F000CF92DF92EF92FF920F931F93CF93DF93D0
:1025000000D000D0CDB7DEB71C016A017B010E946C
:102510005602009709F061C1D10115968C9188236C
:1025200011F090E05AC1F10182859385A485B585AB
:102530008C159D05AE05BF0528F4248121FD02C040
:102540006C017D01D10116964D905D906D907C904F
:102550001997F1011682178210861186C114D104D1
:10256000E104F10421F4C12CD12C760108C10081D1
:102570001181F8018280912CA12CB12C39E0880CBA
:10258000991CAA1CBB1C3A95D1F741145104610453
:10259000710409F43FC0F1E04F1A51086108710855
:1025A000C701B6016150710981099109A501940122
:1025B0000E94FD4129833A834B835C83C301B201AE
:1025C000A50194010E94FD4189819A81AB81BC8162
:1025D00082179307A407B507E8F088279927DC013D
:1025E00088199909AA09BB09482259226A227B2223
:1025F000D10116964D925D926D927C921997C418F6
:10260000D508E608F70852964D915D916D917C9141
:10261000559736C0F1014685578560897189411506
:1026200051056105710539F540E050E0BA01C80176
:102630000E942809AB01BC014130510561057105BB
:1026400039F482E0D10115968C9382E090E0C5C008
:102650004F3FBFEF5B076B077B0731F481E0F10170
:10266000858381E090E0B9C0D1011E964D935D93C2
:102670006D937C935197F101428B538B648B758BD7
:10268000411551056105710509F46DCF8C149D0448
:10269000AE04BF0408F047C0D10114962C911497E2
:1026A0008D919C9121FF0AC00E942809AB01BC01B9
:1026B000411551056105710529F433C00E94580682
:1026C000AB01BC014F3FBFEF5B076B077B0731F2EC
:1026D000423051056105710508F4B3CFD101ED9188
:1026E000FC9182899389A489B589481759076A079B
:1026F0007B0708F0A6CFF101428B538B648B758B5F
:1027000086819781A085B185880D991DAA1DBB1D65
:1027100086839783A087B187C818D908EA08FB0881
:10272000B5CF75016401F10186819781A085B185DE
:102730008C0D9D1DAE1DBF1D86839783A087B1871D
:10274000D701C6019170AA27BB27892B8A2B8B2B17
:1027500009F409CF808191810E94300661157105CD
:102760008105910509F46DCF29E0F694E794D7949B
:10277000C7942A95D1F7C60ED71EE81EF91EF1019F
:1027800086819781A085B185AC01BD015170662716
:102790007727452B462B472B69F046895789608D53
:1027A000718DC416D506E606F70621F0C68AD78ACB
:1027B000E08EF18EF1014285538564857585481759
:1027C00059076A077B0738F482879387A487B58700
:1027D00084818062848380E090E00F900F900F905E
:1027E0000F90DF91CF911F910F91FF90EF90DF90AD
:1027F000CF90BF90AF909F908F907F906F905F90A1
:102800004F903F902F9008950F931F93CF93DF9396
:10281000CDB7DEB760970FB6F894DEBF0FBECDBF61
:10282000788B6F87009709F45EC08C0140E0BE0191
:10283000615F7F4FCE010D960E94C503009709F09E
:102840004EC08D859E85D80111969C938E93CE01A6
:10285000019655969C938E9354976F857889C801FD
:102860000E940E0B009709F045C0F8014289538978
:102870004115510519F1DA011B968C911B9784FFC4
:102880002CC05A968D919C915B97A0E0B0E02D856D
:102890003E85F9012081233061F4FA01448955898C
:1028A00060E070E0BA0155274427842B952BA62BB6
:1028B000B72BF80186839783A087B187ED85FE85C6
:1028C00086819781F8019383828360E070E0C8017C
:1028D0000E9429078430910541F485E090E0D801F9
:1028E0001D921C920BC089E003C00097C1F780E0E5
:1028F00090E004C08430910591F7EFCF60960FB659
:10290000F894DEBF0FBECDBFDF91CF911F910F9125
:102910000895CF93DF93EC010E945602009711F4C3
:1029200019821882DF91CF910895CF92DF92EF92B2
:10293000FF920F931F93CF93DF93CDB7DEB72C9702
:102940000FB6F894DEBF0FBECDBF8C016B010E94A5
:1029500056027C01892B79F5C114D10431F460E071
:1029600070E0C8010E94290725C0CE010196F80138
:10297000958B848BC8010E94750C8430910531F4CD
:10298000F80116861786108A118A02C0009791F402
:10299000B601C8010E94EA0160E070E0C8010E942F
:1029A000020A8430910531F4F80116861786108AE0
:1029B000118A01C07C01C7012C960FB6F894DEBFC6
:1029C0000FBECDBFDF91CF911F910F91FF90EF9080
:1029D000DF90CF900895EF92FF920F931F93CF93C4
:1029E000DF93CDB7DEB7A4970FB6F894DEBF0FBE66
:1029F000CDBF9CA38BA37B0140E0BE016D5D7F4FEB
:102A0000CE0101960E94C5038C01892BD9F4CE0119
:102A100047969E8B8D8B6BA17CA146970E940E0BD7
:102A20008C01892B79F48B899C89892B49F0E114DD
:102A3000F10441F0B701CE0101960E94EA0102C003
:102A400006E010E0C801A4960FB6F894DEBF0FBEF2
:102A5000CDBFDF91CF911F910F91FF90EF9008951F
:102A60002F923F924F925F926F927F928F929F929E
:102A7000AF92BF92CF92DF92EF92FF920F931F938C
:102A8000CF93DF93CDB7DEB729970FB6F894DEBFAB
:102A90000FBECDBF9A8389834B018A0140E0BE01FE
:102AA0006F5F7F4FC8010E94C5035C01D8010D9183
:102AB0001C91892B09F0C0C0F80186859785A089F3
:102AC000B1894288538864887588B301A201425055
:102AD000510961097109481759076A077B0730F0E6
:102AE000F40180839183A283B383A6C0B081BF83A6
:102AF000B13099F522E0422E512C612C712CC12C61
:102B0000D12C7601B301A201C8010E9458066F3F83
:102B1000EFEF7E078E079E0709F477C061307105DD
:102B20008105910509F475C0672B682B692B29F481
:102B3000FFEFCF1ADF0AEF0AFF0A2FEF421A520AFD
:102B4000620A720AF80182899389A489B5894816B4
:102B500059066A067B06B0F261C0468D578D60A1AA
:102B600071A1E0E0F0E019861886C12CD12C760125
:102B70001801BEE22B0E311C88859985892BC1F482
:102B8000DB01CA010196A11DB11D8B839C83AD831E
:102B9000BE83C8010E944903009709F03EC0F101BD
:102BA0004B815C816D817E81A0E0B2E0B987A8870E
:102BB0002F81223071F420813181232B29F48FEF72
:102BC000C81AD80AE80AF80A3296A885B985129771
:102BD00012C080819181A281B381BF70892B8A2B21
:102BE0008B2B29F49FEFC91AD90AE90AF90A3496FE
:102BF000A885B9851497B987A887B1E04B1A510801
:102C00006108710809F0B8CF09C0AA24A394B12CB7
:102C100005C082E0A82EB12C01C05C01F801C68677
:102C2000D786E08AF18A858181608583D401CD923F
:102C3000DD92ED92FC921397C50129960FB6F89498
:102C4000DEBF0FBECDBFDF91CF911F910F91FF90DF
:102C5000EF90DF90CF90BF90AF909F908F907F903C
:102C60006F905F904F903F902F900895CF92DF929A
:102C7000EF92FF920F931F93CF93DF93EC010E948B
:102C800056028C01892B09F071C08D81882319F0BF
:102C9000082F10E06BC08C8181FF62C04E815F8184
:102CA00068857985CA84DB84EC84FD844C155D05D8
:102CB0006E057F0508F05AC04A875B876C877D8761
:102CC00080628C8388819981452B462B472B61F448
:102CD0004E855F85688979890E94010D8C011E8669
:102CE0001F86188A198A37C04A895B896C897D8951
:102CF0000E9458066B017C018FEFC816D806E806C3
:102D0000F80689F1E1E0CE16D104E104F10419F4EA
:102D100002E010E023C088819981FC014289538937
:102D200064897589C416D506E606F706F8F44A895B
:102D30005B896C897D890FEF1FEF2FEF3FE00E94C9
:102D400007088C01892B51F4B701A601888199816C
:102D50000E94010D8C010115110541F00D8306C083
:102D600007E010E003C001E010E0F8CFC801DF91F8
:102D7000CF911F910F91FF90EF90DF90CF9008952A
:102D8000CF92DF92EF92FF92CF93DF93CDB7DEB772
:102D9000EA970FB6F894DEBF0FBECDBF9AAF89AFEA
:102DA00041E0BE01675C7F4FCE0147960E94C5039C
:102DB000009709F06EC0CE018D969CA78BA769ADD8
:102DC0007AAD46970E940E0B009709F062C0E9A504
:102DD000FAA53097E9F1238520FD59C0C28CD38C28
:102DE000E12CF12CAF89B88D8C91833059F4848912
:102DF0009589A0E0B0E0DC0199278827C82AD92A64
:102E0000EA2AFB2A24FF27C0C114D104E104F104FB
:102E1000D9F146E150E0BE01695E7F4FCE010196D7
:102E20000E94CD01CF82D886E986FA8662E070E002
:102E3000CE0101960E942907009759F5CE0101960F
:102E40000E94750C009719F18430910521F021C082
:102E500086E090E01EC0CE0147960E94DF070097F3
:102E6000C1F4C114D104E104F10429F48F89988DCF
:102E70000E94DB020EC0B701A6018F89988D0E94C7
:102E8000010D009731F4F2CF82E090E002C087E0BC
:102E900090E0EA960FB6F894DEBF0FBECDBFDF918B
:102EA000CF91FF90EF90DF90CF9008952F923F92B7
:102EB0004F925F926F927F928F929F92AF92BF924A
:102EC000CF92DF92EF92FF920F931F93CF93DF93F6
:102ED000CDB7DEB7AC970FB6F894DEBF0FBECDBF4F
:102EE0009CA38BA341E0BE016D5D7F4FCE01019697
:102EF0000E94C5038C01892B09F0FBC0CE014796C7
:102F00009E8B8D8B6BA17CA146970E940E0B8C0132
:102F10000097F9F0049709F0ECC040E050E0BA01E6
:102F200089819A810E9428096B017C01672B682B9B
:102F3000692B91F081E0C816D104E104F10479F421
:102F400002E010E0B701A60189819A810E94010D7B
:102F5000D0C008E010E0CDC007E010E0F3CFBFEF35
:102F6000CB16DB06EB06FB0609F49DC089819A812E
:102F70000E9478028C01892B29F709811A81B701F7
:102F8000A601C8010E9430062B013C0158019EE2B7
:102F9000A90EB11C4801A2ED8A1AADEF9A0AF501FB
:102FA000E815F90511F01192FBCFC801C996F5019A
:102FB00020E2E817F90711F02193FBCF8EE2382EBB
:102FC000F80136A680E181AF80E090E0A9E6B5E4A3
:102FD000EC5BFF4F80839183A283B3833496D182CD
:102FE000C082C701AA27BB278DA39EA3AFA3B8A702
:102FF00036979183808340E250E0B501C801825B3F
:103000009F4F0E94CD01F801E15BFF4F30824F815D
:10301000588569857A85E981FA818081833061F4F8
:1030200082A193A1A4A1B5A1481759076A077B07FC
:1030300019F440E050E0BA01D801A859BF4F1196E9
:103040005C934E9316976D937C9332802224239445
:10305000332061F189819A81B301A2014F5F5F4FF3
:103060006F4F7F4FDC019A964D925D926D927C92EC
:103070009D9714962C9249A75AA76BA77CA70E94EC
:1030800078028C0149A55AA56BA57CA5892B09F06E
:1030900059CFF501E815F90511F01192FBCF3A94DB
:1030A0002A013B01D5CF01E010E04CCFCE010196C3
:1030B0000E94B10C8C01892B09F044CFEB89FC896B
:1030C00080E1838780E090E0A9E6B5E4868B978B6A
:1030D000A08FB18FD38EC28E8DA19EA1958B848B34
:1030E00089819A8121E0DC0114962C930E94DB02F5
:1030F0008C01C801AC960FB6F894DEBF0FBECDBFF1
:10310000DF91CF911F910F91FF90EF90DF90CF90C3
:10311000BF90AF909F908F907F906F905F904F90F7
:103120003F902F9008950F931F93CF93DF93CDB7C8
:10313000DEB7A4970FB6F894DEBF0FBECDBF9CA339
:103140008BA3162F042F41E0BE016D5D7F4FCE0192
:1031500001960E94C503009711F5CE0147969E8BFC
:103160008D8B6BA17CA146970E940E0B0097B9F442
:10317000EB89FC89309789F0402F4772942F909506
:10318000838589231423182B138789819A8121E051
:10319000FC0124830E94DB0202C086E090E0A4963A
:1031A0000FB6F894DEBF0FBECDBFDF91CF911F9158
:1031B0000F910895EF92FF920F931F93CF93DF9398
:1031C000CDB7DEB7C155D1090FB6F894DEBF0FBE3B
:1031D000CDBF60969FAF8EAF609762967FAF6EAFA8
:1031E000629741E0BE01625B7F4FCE0147960E942D
:1031F000C503009709F0C5C08F89988D9A8389838C
:10320000CE018E5B9F4F9CA78BA760966EAD7FAD66
:1032100060978B970E940E0B009709F0B2C069A5CA
:103220007AA56115710509F496C0655F7F4F45E188
:1032300050E0CE018D960E94CD0146E150E0BE01E6
:10324000695E7F4FCE0101960E94CD01CE01805B69
:103250009F4F0E94370297FD81C062966EAD7FAD91
:103260006297CE0101960E940E0B009709F479C077
:103270008430910509F085C0CE0101960E94B10C01
:10328000009709F07EC0EB88FC8843E150E0BE0166
:10329000615D7F4FC7010D960E94CD018DA58062B3
:1032A000D7011B968C931B970F89188D81E0F8012D
:1032B00084831B968C9184FF5AC04D8D5E8D6F8DDB
:1032C00078A18F819885A985BA85481759076A071B
:1032D0007B0709F44CC0D7015A964D915C915B97DE
:1032E00060E070E08081833069F454968D919C9108
:1032F0005597A0E0B0E0DC0199278827482B592B8F
:103300006A2B7B2BC8010E943006AB01BC01411522
:1033100051056105710541F1C8010E944903EF891A
:10332000F88D009771F5DF01A15BBF4F8C918E3254
:10333000F1F44F81588569857A859F0128593F4F5F
:10334000D9014D935C9326503109D9016D937C933B
:1033500081E084830CC084E090E013C08BE090E0B7
:1033600010C088E090E00DC082E090E00AC0CE017D
:1033700047960E94DF07009721F48F89988D0E945D
:10338000DB02CF5ADF4F0FB6F894DEBF0FBECDBFC2
:10339000DF91CF911F910F91FF90EF9008950F93C0
:1033A0001F93CF93DF93CDB7DEB7A4970FB6F894F2
:1033B000DEBF0FBECDBF9CA38BA38B0141E0BE013E
:1033C0006D5D7F4FCE0101960E94C503009731F5D8
:1033D000CE0147969E8B8D8B6BA17CA146970E9458
:1033E0000E0B0097D9F4EB89FC893097A9F0D8012E
:1033F00016968D919C911797978B868B14968D912D
:103400009C911597918F808F89819A8121E0FC0191
:1034100024830E94DB0202C086E090E0A4960FB6EF
:10342000F894DEBF0FBECDBFDF91CF911F910F91FA
:1034300008958F929F92AF92BF92CF92DF92EF92B8
:10344000FF920F931F93CF93DF9300D000D0CDB79F
:10345000DEB77C014A018C01C12CD12C5B0181E0DB
:10346000A81AB108CA14DB04D4F49E012F5F3F4FA1
:1034700041E050E0BE016D5F7F4FC4010E94F40E39
:1034800089819A81019759F48B810F5F1F4FF80151
:10349000319780839FEFC91AD90A8A3019F7F8014A
:1034A0001082CD2811F0C70102C080E090E00F909B
:1034B0000F900F900F90DF91CF911F910F91FF9080
:1034C000EF90DF90CF90BF90AF909F908F90089536
:1034D000CF93DF93CDB7DEB7C854D1090FB6F894B8
:1034E000DEBF0FBECDBF7A8369831C821B821E8222
:1034F0001D82682FCE0101960E94D5114B815C81FF
:1035000057FF03C08FEF9FEF17C09E01295B3F4F0E
:10351000BE01695F7F4F89819A810E943610892B95
:1035200089F72B813C8129968EAD9FAD299728176D
:10353000390741F78D819E81C85BDF4F0FB6F89444
:10354000DEBF0FBECDBFDF91CF9108950F931F93C4
:10355000CF93DF93CDB7DEB7C854D1090FB6F89437
:10356000DEBF0FBECDBF7A8369831C821B821E82A1
:103570001D828C01F80161918F01662329F0CE0133
:1035800001960E94D511F6CF4B815C8157FF03C095
:103590008FEF9FEF17C09E01295B3F4FBE01695F10
:1035A0007F4F89819A810E943610892B89F72B8160
:1035B0003C8129968EAD9FAD29972817390741F791
:1035C0008D819E81C85BDF4F0FB6F894DEBF0FBEC2
:1035D000CDBFDF91CF911F910F9108952F923F9210
:1035E0004F925F926F927F928F929F92AF92BF9213
:1035F000CF92DF92EF92FF920F931F93CF93DF93BF
:10360000CDB7DEB7CE55D1090FB6F894DEBF0FBEE9
:10361000CDBFE796CEACDFACE797E5968EAD9FAD1C
:10362000E5979A8389831C821B821E821D827E01FC
:1036300027E7E20EF11C1E0147E4240E311CD601DF
:103640006C91662309F451C1653221F0BFEFCB1AAA
:10365000DB0A9CC0F6011181103331F43396D60198
:1036600012961C9101E00BC0F6011D3219F0329642
:1036700000E005C03396D60112961C9102E0812C21
:10368000912C6F0180ED810F8A3080F4BAE0B89DF3
:10369000C001B99D900D11244C01810E911C17FDA4
:1036A0009A9420E3821A91081191EBCF812F8F7D9C
:1036B0008C3429F404604FEFC41AD40A108111230A
:1036C00009F413C18FE9810F8A3118F420EE210F1C
:1036D00001C0212F2F34E1F054F4233409F448C001
:1036E000243409F45AC0223409F455C04EC025359B
:1036F00009F453C0283509F446C0233509F045C004
:10370000F7016080718082E0E80EF11CF30102C0D5
:1037100038E044C0CF018619970921912111FACFD1
:103720005C0101FD0EC05C01AFEFAA1ABA0A881550
:10373000990538F460E2CE0101960E94D511C501C9
:10374000F2CFF30161913F01662329F0CE0101968A
:103750000E94D511F6CFA814B90408F070CF60E22A
:10376000CE0101960E94D511FFEFAF1ABF0AF3CF29
:1037700087010E5F1F4FD7016C91CE0101960E9409
:10378000D51178015CCF30E109C0612FCE010196DF
:103790000E94D51154CF32E001C03AE002FF0BC0C5
:1037A000F7016081718182819381B4E0EB0EF11C9D
:1037B000243409F516C0A7014E5F5F4F243449F445
:1037C000F70180819181BC01990F880B990B7A01D7
:1037D00008C0D7018D919C91BC0180E090E07A01F6
:1037E0000AC097FF08C090958095709561957F4FAE
:1037F0008F4F9F4F08606B963FAE2EAE6B97A12CFC
:10380000B12C432E512C612C712C6F964CAE5DAEB9
:103810006EAE7FAE6F976F962CAD3DAD4EAD5FAD8A
:103820006F970E94FD412B013C01CA01B901AAE03A
:103830004A1651046104710410F4E42D06C01837CF
:1038400011F0E7E001C0E7E2E40DBFEFAB1ABB0AFD
:10385000E05D6B96AEADBFAD6B97ED936B96BFAF72
:10386000AEAF6B97232B242B252B21F0B0E1AB16A9
:10387000B10489F603FF09C0F101EA0DFB1D8DE2D9
:10388000482E4082C50101965C0100FD02C010E295
:1038900001C010E3350101FD0FC023019FEF491A5C
:1038A000590A6814790438F4612FCE0101960E94F8
:1038B000D5113201F2CF3201A20CB31CD5016E91A9
:1038C0005D01CE0101960E94D511A214B304B1F797
:1038D0006814790408F0B3CE612FCE0101960E94DE
:1038E000D511BFEF6B1A7B0AF3CF4B815C8157FF79
:1038F00003C08FEF9FEF17C09E01295A3F4FBE01B3
:10390000695F7F4F89819A810E943610892B89F7E0
:103910002B813C8169968EAD9FAD69972817390739
:1039200041F78D819E81C25ADF4F0FB6F894DEBFFA
:103930000FBECDBFDF91CF911F910F91FF90EF9000
:10394000DF90CF90BF90AF909F908F907F906F90BF
:103950005F904F903F902F90089523B123B123B1F2
:1039600023B10197D1F70895FC01680F791F919158
:1039700097FF02C02A9A01C02A98299A299896FF8F
:1039800002C02A9A01C02A98299A299895FF02C054
:103990002A9A01C02A98299A299894FF02C02A9A43
:1039A00001C02A98299A299893FF02C02A9A01C037
:1039B0002A98299A299892FF02C02A9A01C02A9827
:1039C000299A299891FF02C02A9A01C02A98299A17
:1039D000299890FF02C02A9A01C02A98299A29980A
:1039E000E617F70721F608952A9AFC01680F791F58
:1039F00093B1299A299893FB992790F9990F1B99CC
:103A00009F5F299A2998990F1B999F5F299A299856
:103A1000990F1B999F5F299A2998990F1B999F5F6E
:103A2000299A2998990F1B999F5F299A2998990F8C
:103A30001B999F5F299A2998990F1B999F5F299A33
:103A400029989193E617F70799F608950F931F9316
:103A5000CF93DF931F92CDB7DEB708E813E161E0A3
:103A600070E0CE0101960E94F41C89818F3F39F0ED
:103A700084E690E00E94AD1C0150110981F781E0BD
:103A800090E0012B11F480E090E00F90DF91CF9156
:103A90001F910F910895CF93DF931F92CDB7DEB79B
:103AA000289A61E070E0CE0101960E94F41C0F900C
:103AB000DF91CF910895CF93DF9300D01F92CDB7C0
:103AC000DEB7289861E070E0CE0101960E94F41CF8
:103AD0000E94261D009739F48A839B830E944B1D08
:103AE0008A819B8102C081E090E00F900F900F903F
:103AF000DF91CF910895CF92DF92EF92FF920F93D3
:103B00001F93CF93DF9300D0CDB7DEB77C016B015D
:103B100008EE13E061E070E0CE0101960E94F41C13
:103B200089818F3F81F089818E3FA9F4B601C70159
:103B30000E94F41C62E070E0CE0101960E94F41C29
:103B400081E090E00AC084E690E00E94AD1C015044
:103B5000110901F7E8CF80E090E00F900F90DF911E
:103B6000CF911F910F91FF90EF90DF90CF9008952C
:103B7000DF92EF92FF920F931F93CF93DF93CDB716
:103B8000DEB727970FB6F894DEBF0FBECDBF182F54
:103B9000042FF52EE62ED72E87FF09C040E050E017
:103BA000BA0187E30E94B81D8230B8F51F771C3038
:103BB00051F4812F80648983DA82EB82FC820D8349
:103BC000112369F008C00E944B1D0E945B1D892BC8
:103BD00081F78FEF22C0183021F081E003C085E922
:103BE00001C087E88E8366E070E0CE0101960E94F6
:103BF000B41C1C3031F461E070E0CE0107960E94E5
:103C0000F41C1AE061E070E0CE0107960E94F41CFB
:103C10008F8187FF02C01150A9F727960FB6F8943D
:103C2000DEBF0FBECDBFDF91CF911F910F91FF90EF
:103C3000EF90DF900895EF92FF921F93CF93DF9361
:103C400000D0CDB7DEB77C01162F0E94261D00974D
:103C500031F1198361E070E0CE0101960E94B41C3D
:103C60001D3FD9F060E072E0C7010E94B41C62E021
:103C700070E0CE0101960E94F41C61E070E0CE017C
:103C800001960E94F41C89818F7131E020E085301B
:103C900009F030E0832F922F02C081E090E00F9076
:103CA0000F90DF91CF911F91FF90EF9008958111B8
:103CB00003C080910001089581E00895EF92FF9282
:103CC0000F931F93CF93DF9300D000D0CDB7DEB713
:103CD000811167C080E197E20E94AD1C209A289A6A
:103CE000219A2998229A1AE061E070E0CE010196AB
:103CF0000E94F41C1150C1F740E050E0BA0180E08E
:103D00000E94B81D813009F076C04AEA51E060E0B7
:103D100070E088E00E94B81D813009F564E070E031
:103D2000CE0101960E94F41C8B81813009F063C0A2
:103D30008C818A3A09F05FC008EE13E040E050E061
:103D400060E070E489EA0E94B81D882361F188EE82
:103D500093E00E94AD1C0150110981F74CC040E076
:103D600050E0BA0189EA0E94B81D823018F001E0E3
:103D700011E002C009EA12E088EEE82E83E0F82E96
:103D800040E050E0BA01802F0E94B81D882351F115
:103D900088EE93E00E94AD1C81E0E81AF10881F7FB
:103DA0002AC083E02AC040E050E0BA018AE30E94C2
:103DB000B81D811120C064E070E0CE0101960E9420
:103DC000F41C898186FD02C014E001C01CE0109340
:103DD000FA0101E0111100E0009300010E944B1D67
:103DE000802F0BC040E052E060E070E080E10E9474
:103DF000B81D882361F310E0EACF0F900F900F9069
:103E00000F90DF91CF911F910F91FF90EF90089548
:103E1000EF92FF920F931F93CF937B01BA01A901F9
:103E2000811103C08091000101C081E080FD32C09A
:103E30008091FA0183FD07C089E0440F551F661F7A
:103E4000771F8A95D1F70230110510F4C1E101C046
:103E5000C2E18C2F0E94B81D811114C060E072E095
:103E6000C7010E947B1D892B29F08EEFF81A0150A3
:103E70001109A1F7C23131F440E050E0BA018CE001
:103E80000E94B81D0E944B1D81E090E0012B21F49F
:103E900080E002C083E090E0CF911F910F91FF90EE
:103EA000EF900895CF92DF92EF92FF920F931F93BE
:103EB000CF93DF93EB0169017A01811103C08091F7
:103EC000000101C081E080FD4BC08091FA0183FDBB
:103ED00007C099E0CC0CDD1CEE1CFF1C9A95D1F7B5
:103EE0000130110599F4B701A60188E10E94B81DBF
:103EF00081112EC06EEFCE010E941B1E31E020E02A
:103F0000892B09F030E0032F122F22C0867031F088
:103F1000A80160E070E087E90E94B81DB701A60122
:103F200089E10E94B81D811113C06CEFCE010E947F
:103F30001B1E892B21F0DE5F01501109B1F76DEFD7
:103F400080E090E00E941B1E892B11F401E010E03C
:103F50000E944B1D81E090E0012B21F480E002C023
:103F600083E090E0DF91CF911F910F91FF90EF9050
:103F7000DF90CF9008950F931F93CF93DF93CDB72A
:103F8000DEB760970FB6F894DEBF0FBECDBF8111CC
:103F900003C08091000101C081E080FD83C08A01DF
:103FA000613091F040F0633009F076C080E890E035
:103FB000A0E0B0E06AC00E945B1D01E010E0892B28
:103FC00009F46CC000E06AC040E050E0BA0189E04A
:103FD0000E94B81D882311F001E05FC060E170E02D
:103FE000CE0101960E947B1D892BB1F39981929598
:103FF000969596959370888549852A859130E1F448
:104000008F7390E0A0E0B0E0DC019927882701964B
:10401000A11DB11D50E0542F4427BA01620F711D3C
:10402000860F971FA11DB11D7AE0880F991FAA1F47
:10403000BB1F7A95D1F729C04295469546954370A6
:10404000F4E08F9FC0011124840F911D01964F81D0
:10405000437050E0542F4427550F550F840F951F80
:10406000A0E0B0E03E81432F4F703B85331F3327E4
:10407000331F340F2370220F230F275004C0880FE3
:10408000991FAA1FBB1F2A95D2F7F801808391833D
:10409000A283B38300E001C004E010E00E944B1D46
:1040A000C80102C083E090E060960FB6F894DEBFCE
:1040B0000FBECDBFDF91CF911F910F9108950F9348
:1040C0001F93CF93DF93CDB7DEB728970FB6F89441
:1040D000DEBF0FBECDBFF9018B019C0109831A839E
:1040E0002B833C83CF01DA018D839E83AF83B88716
:1040F000262F3A814B815C816E2F7E818F8198853E
:1041000028960FB6F894DEBF0FBECDBFDF91CF91DA
:104110001F910F910895AF92BF92CF92DF92EF92CD
:10412000FF920F931F93CF93DF93CDB7DEB76897BE
:104130000FB6F894DEBF0FBECDBF29873A874B87F5
:104140005C876D877E878F87988BA98ABA8ACB8A8E
:10415000DC8AED8AFE8A0F8B188F2D893E894F8964
:10416000588D6D857E858F8598890E946242162FB5
:10417000E72EF82E092F29893A894B895C896985B0
:104180007A858B859C850E9462429B01AB01BC01B4
:1041900049835A836B837C83412F5E2D6F2D702F53
:1041A0004D835E836F8378873A814B815C81612F79
:1041B0007E818F81988568960FB6F894DEBF0FBE1A
:1041C000CDBFDF91CF911F910F91FF90EF90DF90C6
:1041D000CF90BF90AF900895AF92BF92CF92DF92F1
:1041E000EF92FF920F931F93CF93DF93CDB7DEB77C
:1041F00068970FB6F894DEBF0FBECDBF29873A8708
:104200004B875C876D877E878F87988BA98ABA8A50
:10421000CB8ADC8AED8AFE8A0F8B188F2D893E8926
:104220004F89588D6D857E858F8598890E94614262
:10423000162FE72EF82E092F29893A894B895C8998
:1042400069857A858B859C850E9461429B01AB01C3
:10425000BC0149835A836B837C83412F5E2D6F2D74
:10426000702F4D835E836F8378873A814B815C81A9
:10427000612F7E818F81988568960FB6F894DEBF96
:104280000FBECDBFDF91CF911F910F91FF90EF90A7
:10429000DF90CF90BF90AF900895CF93DF93CDB7CD
:1042A000DEB760970FB6F894DEBF0FBECDBF29878B
:1042B0003A874B875C876D877E878F87988B8D8544
:1042C0009E85AF85B889BF7749855A856B857C8582
:1042D0007F7749835A836B837C838D839E83AF83EF
:1042E000B887242F3A816B815C817E81462F682FAD
:1042F0008F81988560960FB6F894DEBF0FBECDBF54
:10430000DF91CF9108954F925F926F927F928F923B
:104310009F92AF92BF92CF92DF92EF92FF920F9354
:104320001F93CF93DF93CDB7DEB7C454D1090FB637
:10433000F894DEBF0FBECDBF29AB3AAB4BAB5CAB45
:104340006DAB7EAB8FAB98AF89A89AA8ABA8BCA881
:104350004DA85EA86FA878ACB801012E000C880BA0
:10436000990B0B30110508F09AC2F801E45BFF4F7E
:104370000C943E4280E090E0A0E8BFE389A79AA7B2
:10438000ABA7BCA71DA61EA61FA618AADAC289A69F
:104390009AA6ABA6BCA64DA65EA66FA678AAD1C269
:1043A000A5019401C501B4010E942C456B017C015B
:1043B000A3019201C301B2010E942C459B01AC01F3
:1043C000C701B6010E94614269A77AA78BA79CA783
:1043D000A5019401C501B4010E946242A3019201AA
:1043E000AAC220E030E040E450E4C301B2010E94E0
:1043F0002C456B017C01A5019401C501B4010E940B
:104400002C45A50194010E942C4569AF7AAF8BAF72
:104410009CAFA3019201C701B6010E942C45A501E2
:1044200094010E942C459B01AC0169AD7AAD8BAD26
:104430009CAD0E94614269A77AA78BA79CA7A501A2
:104440009401C701B6010E942C45A50194010E9468
:104450002C456B017C01A3019201C301B201E3C1B0
:1044600020E030E040EA50E4C301B2010E942C4554
:1044700069AF7AAF8BAF9CAF20E030E040E251E40F
:10448000C301B2010E942C45A30192010E942C4558
:104490006B017C01A5019401C501B4010E942C456A
:1044A000A50194010E942C45A50194010E942C4570
:1044B000A50194010E942C4521966CAF7DAF8EAF73
:1044C0009FAF2197A5019401C701B6010E942C4519
:1044D000A50194010E942C45A50194010E942C4540
:1044E0009B01AC0121966CAD7DAD8EAD9FAD21974A
:1044F0000E94614221966CAF7DAF8EAF9FAF219736
:10450000A301920169AD7AAD8BAD9CAD0E942C45A3
:10451000A30192010E942C45A30192010E942C4507
:10452000A50194010E942C459B01AC0121966CAD24
:104530007DAD8EAD9FAD21970E94624269A77AA79B
:104540008BA79CA7A501940169AD7AAD8BAD9CADFD
:104550000E942C45A50194010E942C45A5019401BF
:104560000E942C45A50194010E942C4569AF7AAFA9
:104570008BAF9CAFA3019201C701B6010E942C45ED
:10458000A50194010E942C45A50194010E942C458F
:104590009B01AC0169AD7AAD8BAD9CAD0E946142CF
:1045A0006B017C01A3019201C301B2010E942C4561
:1045B000A30192010E942C45A30192010E942C4567
:1045C000A30192010E942C459B01AC01C701B601D9
:1045D0000E946242B2C120E030E040EE50E4C301EC
:1045E000B2010E942C4569AF7AAF8BAF9CAF20E03F
:1045F00030E04CE052E4C301B2010E942C45A3011B
:1046000092010E942C45A30192010E942C45219603
:104610006CAF7DAF8EAF9FAF219720E030E048EACE
:1046200051E4C301B2010E942C45A30192010E94F2
:104630002C4525966CAF7DAF8EAF9FAF2597A5011A
:104640009401C501B4010E942C45A50194010E946A
:104650002C45A50194010E942C45A50194010E94BE
:104660002C45A50194010E942C45A50194010E94AE
:104670002C456B017C01A501940125966CAD7DADA7
:104680008EAD9FAD25970E942C45A50194010E94F7
:104690002C45A50194010E942C45A50194010E947E
:1046A0002C45A50194010E942C459B01AC01C7013A
:1046B000B6010E9461426B017C01A3019201219627
:1046C0006CAD7DAD8EAD9FAD21970E942C45A501AF
:1046D00094010E942C45A50194010E942C45A5013E
:1046E00094010E942C459B01AC01C701B6010E94B8
:1046F00062426B017C01A301920169AD7AAD8BAD81
:104700009CAD0E942C45A30192010E942C45A3015F
:1047100092010E942C45A30192010E942C45A30105
:1047200092010E942C45A50194010E942C459B01F9
:10473000AC01C701B6010E94614269A77AA78BA7A5
:104740009CA7A501940169AD7AAD8BAD9CAD0E948B
:104750002C45A50194010E942C45A50194010E94BD
:104760002C45A50194010E942C45A50194010E94AD
:104770002C45A50194010E942C456B017C01A501EB
:10478000940121966CAD7DAD8EAD9FAD21970E94B9
:104790002C45A50194010E942C45A50194010E947D
:1047A0002C45A50194010E942C459B01AC01C70139
:1047B000B6010E9461426B017C01A3019201259622
:1047C0006CAD7DAD8EAD9FAD25970E942C45A301AC
:1047D00092010E942C45A30192010E942C45A50143
:1047E00094010E942C45A50194010E942C459B0137
:1047F000AC01C701B6010E9462426B017C01A301BA
:104800009201C301B2010E942C45A30192010E94B2
:104810002C45A30192010E942C45A30192010E9404
:104820002C45A30192010E942C45A30192010E94F4
:104830002C459B01AC01C701B6010E9461427DC0BD
:1048400002E010E008C003E010E012C004E010E055
:104850000FC003E010E029A93AA94BA95CA96DA9F2
:104860007EA98FA998AD0E9483210EC005E010E0BB
:1048700029A93AA94BA95CA96DA97EA98FA998ADD0
:104880000E94832102E010E00E94832129A73AA719
:104890004BA75CA76DA77EA78FA798AB52C00E94BD
:1048A000C84369AF7AAF8BAF9CAFA5019401C50136
:1048B000B4010E942C456B017C01A3019201C3014C
:1048C000B2010E942C459B01AC01C701B6010E94B8
:1048D00062420E94F74529AD3AAD4BAD5CAD0E94F6
:1048E00099456B017C01A5019401C301B2010E94AD
:1048F0001E430E94CE429B01AC0169AD7AAD8BADE7
:104900009CAD0E942C454B015C010E94E9452B01A6
:104910003C01C501B4010E9419439B01AC01C701D0
:10492000B6010E942C4569A77AA78BA79CA7A30173
:104930009201C701B6010E942C456DA77EA78FA7E3
:1049400098AB29A53AA54BA55CA56DA57EA58FA51D
:1049500098A9CC5BDF4F0FB6F894DEBF0FBECDBF7A
:10496000DF91CF911F910F91FF90EF90DF90CF904B
:10497000BF90AF909F908F907F906F905F904F907F
:1049800008958F929F92AF92BF92CF92DF92EF9253
:10499000FF92CF93DF93CDB7DEB728970FB6F89489
:1049A000DEBF0FBECDBF29833A834B835C836D830B
:1049B0007E838F83988769817A818B819C81CD806A
:1049C000DE80EF80F8849B01AC010E942C454B01F6
:1049D0005C01A7019601C701B6010E942C459B010D
:1049E000AC01C501B4010E94624228960FB6F8944A
:1049F000DEBF0FBECDBFDF91CF91FF90EF90DF9074
:104A0000CF90BF90AF909F908F9008952F923F923C
:104A10004F925F927F928F929F92AF92BF92CF926E
:104A2000DF92EF92FF920F931F93CF93DF93CDB757
:104A3000DEB7A0970FB6F894DEBF0FBECDBF2987B3
:104A40003A874B875C876D877E878F87988BA98A8B
:104A5000BA8ACB8ADC8AED8AFE8A0F8B188FC984CA
:104A6000DA84EB84FC842D843E844F8458888989C1
:104A70009A89AB89BC89898F9A8FAB8FBC8F8D88BF
:104A80009E88AF88B88C9C01AD01C701B6010E9419
:104A90002C456D8F7E8F8F8F98A3A5019401C20145
:104AA000B1010E942C459B01AC016D8D7E8D8F8DD7
:104AB00098A10E946142762EAB01BC0149835A83C2
:104AC0006B837C83A5019401C701B6010E942C452C
:104AD0006B017C01298D3A8D4B8D5C8DC201B1013A
:104AE0000E942C459B01AC01C701B6010E946242A5
:104AF000E62F462F572FBC014D835E836F83788747
:104B0000272D3A814B815C816E2F7E818F81988524
:104B1000A0960FB6F894DEBF0FBECDBFDF91CF9148
:104B20001F910F91FF90EF90DF90CF90BF90AF90CB
:104B30009F908F907F905F904F903F902F9008951F
:104B40002F923F924F925F926F927F928F929F929D
:104B5000AF92BF92CF92DF92EF92FF920F931F938B
:104B6000CF93DF93CDB7DEB7A4970FB6F894DEBF2F
:104B70000FBECDBF29873A874B875C876D877E87BD
:104B80008F87988BA98ABA8ACB8ADC8AED8AFE8ABB
:104B90000F8B188F89859A85AB85BC858D8F9E8FED
:104BA000AF8FB8A38D859E85AF85B889898F9A8F81
:104BB000AB8FBC8F89889A88AB88BC88CD88DE880B
:104BC000EF88F88CA5019401C501B4010E942C4521
:104BD0002B013C01A7019601C701B6010E942C459B
:104BE0009B01AC01C301B2010E9462421B012C0176
:104BF000A50194016D8D7E8D8F8D98A10E942C450D
:104C000069A37AA38BA39CA3A7019601698D7A8DD2
:104C10008B8D9C8D0E942C459B01AC0169A17AA1D2
:104C20008BA19CA10E946242A20191010E941E439D
:104C3000762EAB01BC0149835A836B837C83A5012B
:104C40009401698D7A8D8B8D9C8D0E942C454B0132
:104C50005C01A70196016D8D7E8D8F8D98A10E94BC
:104C60002C459B01AC01C501B4010E946142A20127
:104C700091010E941E43E62F462F572FBC014D8302
:104C80005E836F837887272D3A814B815C816E2FFD
:104C90007E818F819885A4960FB6F894DEBF0FBEF3
:104CA000CDBFDF91CF911F910F91FF90EF90DF90DB
:104CB000CF90BF90AF909F908F907F906F905F90BC
:104CC0004F903F902F900895AF92BF92CF92DF9276
:104CD000EF92FF920F931F93CF93DF93CDB7DEB781
:104CE00068970FB6F894DEBF0FBECDBFC12CD12C94
:104CF000E0E8EE2EEFE3FE2EC982DA82EB82FC8240
:104D00001D821E821F82188659016A017B018C0157
:104D100020E03A814B815C8160E07E818F819885C3
:104D20000E94A02568960FB6F894DEBF0FBECDBFD7
:104D3000DF91CF911F910F91FF90EF90DF90CF9077
:104D4000BF90AF9008952F923F924F925F926F92D3
:104D50007F928F929F92AF92BF92CF92DF92EF920B
:104D6000FF920F931F93CF93DF93CDB7DEB7C35B53
:104D7000D1090FB6F894DEBF0FBECDBFC452DF4FCE
:104D800028813981CC5DD040CA55DF4F39832883D3
:104D9000C65AD040CC51DF4FC880D980EA80FB8012
:104DA000C45ED040C251DF4F88819981CE5ED04031
:104DB000CE55DF4F99838883C25AD040CE50DF4F03
:104DC000A881B981C25FD040C655DF4FB983A8839F
:104DD000CA5AD040CC50DF4FE881F981C45FD0403F
:104DE000C855DF4FF983E883C85AD040CC52DF4F13
:104DF00088809980AA80BB80C45DD040C453DF4FB7
:104E000088819981AA81BB81CC5CD040C356DF4F99
:104E100088839983AA83BB83CD59D040A50194018F
:104E2000C852DF4F688179818A819B81C85DD040FB
:104E30000E9461422B013C01C850DF4F688179819B
:104E4000C85FD040072E000C880B990B0E94C84306
:104E50009B01AC01C301B2010E942C452B013C0116
:104E6000C653DF4F68817981CA5CD040072E000CA1
:104E7000880B990B0E94C8439B01AC01C301B2018E
:104E80000E941E439B01AC01C501B4010E94624215
:104E90002B013C01C356DF4F288139814A815B8158
:104EA000CD59D040C053DF4F688179818A819B8181
:104EB000C05DD0400E9461424B015C01CA50DF4F8F
:104EC00068817981C65FD040072E000C880B990B52
:104ED0000E94C8439B01AC01C501B4010E942C454E
:104EE0004B015C01C853DF4F68817981C85CD040B9
:104EF000072E000C880B990B0E94C8439B01AC0144
:104F0000C501B4010E941E439B01AC01C356DF4F93
:104F1000688179818A819B81CD59D0400E9462420B
:104F2000A30192010E945F20CB56DF4F2883C55911
:104F3000D040CA56DF4F3883C659D040C956DF4FDC
:104F40004883C759D040C856DF4F5883C859D0400E
:104F5000C756DF4F6883C959D040C656DF4F7883A4
:104F6000CA59D040C556DF4F8883CB59D040C4566C
:104F7000DF4F9883CC59D040922E332E3A01862EA3
:104F8000C356DF4F7883CD59D040CF55DF4F88834C
:104F9000C15AD040C456DF4F2880CC59D0402FEFA3
:104FA0003FEF4FE75FE7C701B6010E94144381114D
:104FB00020C0892D932DD301C357DF4F8883998358
:104FC000AA83BB83CD58D040882DC356DF4F98812C
:104FD000CD59D040CF55DF4FA881C15AD040B22D16
:104FE000CF56DF4F88839983AA83BB83C159D040B2
:104FF00034C0C851DF4F288139814A815B81C85E46
:10500000D040C701B6010E945F20C357DF4F2883FD
:10501000CD58D040C257DF4F3883CE58D040C1570B
:10502000DF4F4883CF58D040C057DF4F5883C05917
:10503000D040CF56DF4F6883C159D040CE56DF4FA6
:105040007883C259D040CD56DF4F8883C359D040B2
:10505000CC56DF4F9883C459D040C051DF4F888170
:105060009981C05FD040892B09F4CAC0C357DF4F74
:105070002881CD58D040C257DF4F3881CE58D0401C
:10508000C157DF4F4881CF58D040C057DF4F5881BC
:10509000C059D040CF56DF4F6881C159D040CE565D
:1050A000DF4F7881C259D040CD56DF4F8881C35938
:1050B000D040CC56DF4F9881C459D0400E9464261E
:1050C000C357DF4F2883CD58D040C257DF4F3883B6
:1050D000CE58D040C157DF4F4883CF58D040C0573B
:1050E000DF4F5883C059D040CF56DF4F6883C15936
:1050F000D040CE56DF4F7883C259D040CD56DF4FD7
:105100008883C359D040CC56DF4F9883C459D040D0
:10511000292D892D932DD301CB56DF4F8883998379
:10512000AA83BB83C559D040682D882DC356DF4F55
:105130009881CD59D040CF55DF4FA881C15AD0407A
:10514000B22DC756DF4F88839983AA83BB83C95981
:10515000D040CA56DF4F3881C659D040C956DF4FBC
:105160004881C759D040C856DF4F5881C859D040F0
:10517000C656DF4F7881CA59D040C556DF4F888167
:10518000CB59D040C456DF4F9881CC59D0400E94B3
:105190006426CB56DF4F2883C559D040CA56DF4F0F
:1051A0003883C659D040C956DF4F4883C759D040CD
:1051B000C856DF4F5883C859D040C756DF4F688361
:1051C000C959D040C656DF4F7883CA59D040C5561A
:1051D000DF4F8883CB59D040C456DF4F9883CC59DA
:1051E000D040922E332E3A01862EC356DF4F78835D
:1051F000CD59D040CF55DF4F8883C15AD040292E9A
:10520000C252DF4F688179818A819B81CE5DD04017
:105210009B01AC010E942C45C455DF4F6883798304
:105220008A839B83CC5AD040C855DF4F288139816F
:10523000C85AD0402130310561F02230310591F05B
:1052400081E090E0CC55DF4F99838883C45AD040E9
:1052500011C0A5E0B0E0CC55DF4FB983A883C45A94
:10526000D04008C0E4E0F0E0CC55DF4FF983E8839C
:10527000C45AD040FE01319680E090E04FEF5FEFDE
:105280006FE77FE741935193619371930196CC55FA
:10529000DF4F28813981C45AD0408217930791F794
:1052A00044244394512CCE55DF4F88819981C25AB2
:1052B000D040092E000CAA0BBB0BC055DF4F8883D2
:1052C0009983AA83BB83C05BD040CA55DF4FE88176
:1052D000F981C65AD0404E165F060CF0ACC4C451DA
:1052E000DF4F88819981CC5ED0408230910509F4EE
:1052F000F2C024F4019709F474C007C0833091050B
:1053000009F43AC1049709F4D0C2292D892D932DAF
:10531000D301CB56DF4F88839983AA83BB83C559BA
:10532000D040682D882DC356DF4F9881CD59D0408D
:10533000CF55DF4FA881C15AD040B22DC756DF4F9D
:1053400088839983AA83BB83C959D040CE55DF4F48
:1053500008811981C25AD040CA56DF4F3881C659D8
:10536000D040C956DF4F4881C759D040C856DF4F9B
:105370005881C859D040C656DF4F7881CA59D040AD
:10538000C556DF4F8881CB59D040C456DF4F988136
:10539000CC59D0400E948321EE962FAFEE97EF9626
:1053A0003FAFEF97C158DF4F4883CF57D040C05829
:1053B000DF4F5883C058D040CF57DF4F6883C15864
:1053C000D040CE57DF4F7883C258D040CD57DF4F03
:1053D0008883C358D040CC57DF4F9883C458D040FF
:1053E00039C2292D892D932DD301CB56DF4F8883C8
:1053F0009983AA83BB83C559D040682D882DC35695
:10540000DF4F9881CD59D040CF55DF4FA881C15A89
:10541000D040B22DC756DF4F88839983AA83BB83C0
:10542000C959D040CA56DF4F3881C659D040C956F5
:10543000DF4F4881C759D040C856DF4F5881C859FF
:10544000D040C656DF4F7881CA59D040C556DF4F8D
:105450008881CB59D040C456DF4F9881CC59D04079
:105460000E944D21E6962FAFE697E7963FAFE7976C
:10547000E8964FAFE897E9965FAFE997EA966FAF86
:10548000EA97EB967FAFEB97EC968FAFEC97ED96A4
:105490009FAFED97CE55DF4F08811981C25AD0409A
:1054A0000E948321AE962FAFAE97AF963FAFAF97D6
:1054B000E0964FAFE097E1965FAFE197E2966FAF6E
:1054C000E297E3967FAFE397E4968FAFE497E59694
:1054D0009FAFE597BFC1282DC356DF4F3881CD5907
:1054E000D040CF55DF4F4881C15AD040522D60E0A7
:1054F00070E0CB010E9461429B01AC01692D732DCC
:10550000C3010E945F20A6962FAFA697A7963FAF34
:10551000A797A8964FAFA897A9965FAFA997AA9605
:105520006FAFAA97AB967FAFAB97AC968FAFAC97A8
:10553000AD969FAFAD97CE55DF4F08811981C25A06
:10554000D0400E9483216E962FAF6E976F963FAF2B
:105550006F97A0964FAFA097A1965FAFA197A29625
:105560006FAFA297A3967FAFA397A4968FAFA49790
:10557000A5969FAFA5976EC1292D892D932DD30197
:10558000CB56DF4F88839983AA83BB83C559D0400C
:10559000682D882DC356DF4F9881CD59D040CF5507
:1055A000DF4FA881C15AD040B22DC756DF4F888344
:1055B0009983AA83BB83C959D040CE55DF4F088158
:1055C0001981C25AD04001501109CA56DF4F3881A3
:1055D000C659D040C956DF4F4881C759D040C85638
:1055E000DF4F5881C859D040C656DF4F7881CA591D
:1055F000D040C556DF4F8881CB59D040C456DF4FCD
:105600009881CC59D0400E94832166962FAF66972F
:1056100067963FAF679768964FAF689769965FAF99
:1056200069976A966FAF6A976B967FAF6B976C9628
:105630008FAF6C976D969FAF6D97C055DF4F6881A8
:1056400079818A819B81C05BD0400E94C84320E061
:1056500030E0A9010E945F202E962FAF2E972F9643
:105660003FAF2F9760964FAF609761965FAF61979E
:1056700062966FAF629763967FAF639764968FAFC2
:10568000649765969FAF65976696AFAC6697679689
:10569000BFAC67976896CFAC68976996DFAC69979F
:1056A0006A96EFAC6A976B96FFAC6B976C960FADF2
:1056B0006C976D961FAD6D970E94062526962FAFAD
:1056C000269727963FAF279728964FAF289729967A
:1056D0005FAF29972A966FAF2A972B967FAF2B97AC
:1056E0002C968FAF2C972D969FAF2D9720E030E012
:1056F000A90160E070E080E89FE30E945F202DAF89
:105700003EAF4FAF21965FAF219722966FAF2297A2
:1057100023967FAF239724968FAF249725969FAF2C
:105720002597CE55DF4F08811981C25AD040CB56FC
:10573000DF4F2881C559D040CA56DF4F3881C6593E
:10574000D040C956DF4F4881C759D040C856DF4FB7
:105750005881C859D040C756DF4F6881C959D040D9
:10576000C656DF4F7881CA59D040C556DF4F888171
:10577000CB59D040C456DF4F9881CC59D0400E94BD
:1057800083212DAB3EAB4FAB58AF69AF7AAF8BAF38
:105790009CAFADACBEACCFAC2196DFAC21972296CE
:1057A000EFAC22972396FFAC239724960FAD249756
:1057B00025961FAD25970E94EC202DA73EA74FA749
:1057C00058AB69AB7AAB8BAB9CAB20E030E0A90166
:1057D00060E070E080E89FE30E945F202DA33EA37D
:1057E0004FA358A769A77AA78BA79CA7ADA4BEA46F
:1057F000CFA4D8A8E9A8FAA80BA91CA90E9406253D
:105800002D8F3E8F4F8F58A369A37AA38BA39CA3A0
:105810002696AFAC26972796BFAC27972896CFAC95
:1058200028972996DFAC29972A96EFAC2A972B96D2
:10583000FFAC2B972C960FAD2C972D961FAD2D9767
:105840000E94A0252D8B3E8B4F8B588F698F7A8FAE
:105850008B8F9C8FC357DF4FA880CD58D040C25745
:10586000DF4FB880CE58D040C157DF4FC880CF58E7
:10587000D040C057DF4FD880C059D040CF56DF4FFF
:10588000E880C159D040CE56DF4FF880C259D04091
:10589000CD56DF4F0881C359D040CC56DF4F188119
:1058A000C459D0400E948B2047C0292D892D932DAB
:1058B000D301CB56DF4F88839983AA83BB83C55915
:1058C000D040682D882DC356DF4F9881CD59D040E8
:1058D000CF55DF4FA881C15AD040B22DC756DF4FF8
:1058E00088839983AA83BB83C959D040CE55DF4FA3
:1058F00008811981C25AD040CA56DF4F3881C65933
:10590000D040C956DF4F4881C759D040C856DF4FF5
:105910005881C859D040C656DF4F7881CA59D04007
:10592000C556DF4F8881CB59D040C456DF4F988190
:10593000CC59D0400E948321F22EC32E142FD52E95
:10594000E62E072F5C018F2D932FA42FB52FCB5759
:10595000DF4F88839983AA83BB83C558D0408E2D9F
:10596000972FD501C757DF4F88839983AA83BB83BD
:10597000C958D040CA57DF4F3881C658D040C957A0
:10598000DF4F4881C758D040C857DF4F5881C858AB
:10599000D040C657DF4F7881CA58D040C557DF4F37
:1059A0008881CB58D040C457DF4F9881CC58D04025
:1059B0000E94C124C655DF4FA881B981CA5AD04080
:1059C000109709F455C1119709F05AC02F2D3C2D9D
:1059D000412F5D2D6F2D7C2D812F9D2D0E942C45FB
:1059E0003B014C01C201CC55DF4F68817981C45A1B
:1059F000D0400E94E9411C01220C331C220C331CB4
:105A0000E1E0F0E0EC0FFD1FE20DF31DC356DF4FA8
:105A1000F983E883CD59D04020813181428153817F
:105A2000C401B3010E94144387FF0BC0C356DF4F6C
:105A3000A881B981CD59D0406D927D928D929C9272
:105A400013972E2D302FA5016E2D702FC5010E94AA
:105A50002C453B014C01E1E0F0E0EC0FFD1F2E0E68
:105A60003F1ED1012D913D914D915C910E941443B7
:105A700087FF8CC0F101608271828282938286C02E
:105A8000CB57DF4F2881C558D040CA57DF4F3881E8
:105A9000C658D040C957DF4F4881C758D040C85773
:105AA000DF4F5881C858D040C757DF4F6881C95869
:105AB000D040C657DF4F7881CA58D040C557DF4F16
:105AC0008881CB58D040C457DF4F9881CC58D04004
:105AD0000E94C124C356DF4F688379838A839B83E6
